{"abi":[{"type":"constructor","inputs":[{"name":"initialOracles","type":"address[]","internalType":"address[]"}],"stateMutability":"nonpayable"},{"type":"fallback","stateMutability":"payable"},{"type":"receive","stateMutability":"payable"},{"type":"function","name":"allowOracle","inputs":[{"name":"oracle","type":"address","internalType":"address"}],"outputs":[],"stateMutability":"nonpayable"},{"type":"function","name":"cancelRequest","inputs":[{"name":"requestId","type":"bytes32","internalType":"bytes32"}],"outputs":[],"stateMutability":"nonpayable"},{"type":"function","name":"fulfillVerification","inputs":[{"name":"requestId","type":"bytes32","internalType":"bytes32"},{"name":"success","type":"bool","internalType":"bool"}],"outputs":[],"stateMutability":"nonpayable"},{"type":"function","name":"getRequest","inputs":[{"name":"requestId","type":"bytes32","internalType":"bytes32"}],"outputs":[{"name":"requester","type":"address","internalType":"address"},{"name":"userId","type":"bytes32","internalType":"bytes32"},{"name":"createdAt","type":"uint64","internalType":"uint64"},{"name":"expiryAt","type":"uint64","internalType":"uint64"},{"name":"status","type":"uint8","internalType":"uint8"}],"stateMutability":"view"},{"type":"function","name":"getStatus","inputs":[{"name":"requestId","type":"bytes32","internalType":"bytes32"}],"outputs":[{"name":"","type":"uint8","internalType":"uint8"}],"stateMutability":"view"},{"type":"function","name":"oracleAllowlist","inputs":[{"name":"","type":"address","internalType":"address"}],"outputs":[{"name":"","type":"bool","internalType":"bool"}],"stateMutability":"view"},{"type":"function","name":"owner","inputs":[],"outputs":[{"name":"","type":"address","internalType":"address"}],"stateMutability":"view"},{"type":"function","name":"requestVerification","inputs":[{"name":"requestId","type":"bytes32","internalType":"bytes32"},{"name":"userId","type":"bytes32","internalType":"bytes32"},{"name":"expirySeconds","type":"uint64","internalType":"uint64"}],"outputs":[],"stateMutability":"nonpayable"},{"type":"function","name":"requests","inputs":[{"name":"","type":"bytes32","internalType":"bytes32"}],"outputs":[{"name":"requester","type":"address","internalType":"address"},{"name":"userId","type":"bytes32","internalType":"bytes32"},{"name":"createdAt","type":"uint64","internalType":"uint64"},{"name":"expiryAt","type":"uint64","internalType":"uint64"},{"name":"status","type":"uint8","internalType":"enum Verifier.Status"}],"stateMutability":"view"},{"type":"function","name":"revokeOracle","inputs":[{"name":"oracle","type":"address","internalType":"address"}],"outputs":[],"stateMutability":"nonpayable"},{"type":"function","name":"transferOwnership","inputs":[{"name":"newOwner","type":"address","internalType":"address"}],"outputs":[],"stateMutability":"nonpayable"},{"type":"event","name":"OracleAllowed","inputs":[{"name":"oracle","type":"address","indexed":true,"internalType":"address"},{"name":"setter","type":"address","indexed":true,"internalType":"address"}],"anonymous":false},{"type":"event","name":"OracleRevoked","inputs":[{"name":"oracle","type":"address","indexed":true,"internalType":"address"},{"name":"setter","type":"address","indexed":true,"internalType":"address"}],"anonymous":false},{"type":"event","name":"OwnerTransferred","inputs":[{"name":"oldOwner","type":"address","indexed":true,"internalType":"address"},{"name":"newOwner","type":"address","indexed":true,"internalType":"address"}],"anonymous":false},{"type":"event","name":"RequestCancelled","inputs":[{"name":"requestId","type":"bytes32","indexed":true,"internalType":"bytes32"},{"name":"requester","type":"address","indexed":true,"internalType":"address"},{"name":"cancelledAt","type":"uint64","indexed":false,"internalType":"uint64"}],"anonymous":false},{"type":"event","name":"VerificationFulfilled","inputs":[{"name":"requestId","type":"bytes32","indexed":true,"internalType":"bytes32"},{"name":"success","type":"bool","indexed":false,"internalType":"bool"},{"name":"oracle","type":"address","indexed":true,"internalType":"address"},{"name":"fulfilledAt","type":"uint64","indexed":false,"internalType":"uint64"}],"anonymous":false},{"type":"event","name":"VerificationRequested","inputs":[{"name":"requestId","type":"bytes32","indexed":true,"internalType":"bytes32"},{"name":"requester","type":"address","indexed":true,"internalType":"address"},{"name":"userId","type":"bytes32","indexed":true,"internalType":"bytes32"},{"name":"createdAt","type":"uint64","indexed":false,"internalType":"uint64"},{"name":"expiryAt","type":"uint64","indexed":false,"internalType":"uint64"}],"anonymous":false}],"bytecode":{"object":"0x608060405234801561000f575f5ffd5b50604051611e53380380611e538339818101604052810190610031919061037e565b335f5f6101000a81548173ffffffffffffffffffffffffffffffffffffffff021916908373ffffffffffffffffffffffffffffffffffffffff1602179055505f5f90505b81518110156101bc575f73ffffffffffffffffffffffffffffffffffffffff168282815181106100a8576100a76103c5565b5b602002602001015173ffffffffffffffffffffffffffffffffffffffff16146101af57600160025f8484815181106100e3576100e26103c5565b5b602002602001015173ffffffffffffffffffffffffffffffffffffffff1673ffffffffffffffffffffffffffffffffffffffff1681526020019081526020015f205f6101000a81548160ff0219169083151502179055503373ffffffffffffffffffffffffffffffffffffffff16828281518110610164576101636103c5565b5b602002602001015173ffffffffffffffffffffffffffffffffffffffff167f97a7ffa9582b4548d58f5302f8e563efdb632073050a435952db5ebc2dc12d7260405160405180910390a35b8080600101915050610075565b50506103f2565b5f604051905090565b5f5ffd5b5f5ffd5b5f5ffd5b5f601f19601f8301169050919050565b7f4e487b71000000000000000000000000000000000000000000000000000000005f52604160045260245ffd5b61021e826101d8565b810181811067ffffffffffffffff8211171561023d5761023c6101e8565b5b80604052505050565b5f61024f6101c3565b905061025b8282610215565b919050565b5f67ffffffffffffffff82111561027a576102796101e8565b5b602082029050602081019050919050565b5f5ffd5b5f73ffffffffffffffffffffffffffffffffffffffff82169050919050565b5f6102b88261028f565b9050919050565b6102c8816102ae565b81146102d2575f5ffd5b50565b5f815190506102e3816102bf565b92915050565b5f6102fb6102f684610260565b610246565b9050808382526020820190506020840283018581111561031e5761031d61028b565b5b835b81811015610347578061033388826102d5565b845260208401935050602081019050610320565b5050509392505050565b5f82601f830112610365576103646101d4565b5b81516103758482602086016102e9565b91505092915050565b5f60208284031215610393576103926101cc565b5b5f82015167ffffffffffffffff8111156103b0576103af6101d0565b5b6103bc84828501610351565b91505092915050565b7f4e487b71000000000000000000000000000000000000000000000000000000005f52603260045260245ffd5b611a54806103ff5f395ff3fe60806040526004361061009f575f3560e01c806379573e141161006357806379573e141461020a5780638da5cb5b146102325780639d8669851461025c578063efd716341461029c578063f2fde38b146102c4578063fb1e61ca146102ec576100df565b806311bb14cc1461011a578063139eb02014610142578063501255461461017e5780635983e6b0146101a65780635de28ae0146101ce576100df565b366100df576040517f08c379a00000000000000000000000000000000000000000000000000000000081526004016100d6906110f5565b60405180910390fd5b6040517f08c379a00000000000000000000000000000000000000000000000000000000081526004016101119061115d565b60405180910390fd5b348015610125575f5ffd5b50610140600480360381019061013b91906111d9565b61032c565b005b34801561014d575f5ffd5b50610168600480360381019061016391906111d9565b6104da565b604051610175919061121e565b60405180910390f35b348015610189575f5ffd5b506101a4600480360381019061019f919061126a565b6104f7565b005b3480156101b1575f5ffd5b506101cc60048036038101906101c791906111d9565b6106e9565b005b3480156101d9575f5ffd5b506101f460048036038101906101ef919061126a565b6108b1565b60405161020191906112b0565b60405180910390f35b348015610215575f5ffd5b50610230600480360381019061022b9190611306565b6108ed565b005b34801561023d575f5ffd5b50610246610b7c565b6040516102539190611365565b60405180910390f35b348015610267575f5ffd5b50610282600480360381019061027d919061126a565b610ba0565b60405161029395949392919061140f565b60405180910390f35b3480156102a7575f5ffd5b506102c260048036038101906102bd919061148a565b610c25565b005b3480156102cf575f5ffd5b506102ea60048036038101906102e591906111d9565b610e39565b005b3480156102f7575f5ffd5b50610312600480360381019061030d919061126a565b610ff1565b6040516103239594939291906114c8565b60405180910390f35b5f5f9054906101000a900473ffffffffffffffffffffffffffffffffffffffff1673ffffffffffffffffffffffffffffffffffffffff163373ffffffffffffffffffffffffffffffffffffffff16146103ba576040517f08c379a00000000000000000000000000000000000000000000000000000000081526004016103b190611563565b60405180910390fd5b5f73ffffffffffffffffffffffffffffffffffffffff168173ffffffffffffffffffffffffffffffffffffffff1603610428576040517f08c379a000000000000000000000000000000000000000000000000000000000815260040161041f906115cb565b60405180910390fd5b600160025f8373ffffffffffffffffffffffffffffffffffffffff1673ffffffffffffffffffffffffffffffffffffffff1681526020019081526020015f205f6101000a81548160ff0219169083151502179055503373ffffffffffffffffffffffffffffffffffffffff168173ffffffffffffffffffffffffffffffffffffffff167f97a7ffa9582b4548d58f5302f8e563efdb632073050a435952db5ebc2dc12d7260405160405180910390a350565b6002602052805f5260405f205f915054906101000a900460ff1681565b5f60015f8381526020019081526020015f2090506001600481111561051f5761051e61139c565b5b8160020160109054906101000a900460ff1660048111156105435761054261139c565b5b14610583576040517f08c379a000000000000000000000000000000000000000000000000000000000815260040161057a90611633565b60405180910390fd5b3373ffffffffffffffffffffffffffffffffffffffff16815f015f9054906101000a900473ffffffffffffffffffffffffffffffffffffffff1673ffffffffffffffffffffffffffffffffffffffff16148061062a57505f5f9054906101000a900473ffffffffffffffffffffffffffffffffffffffff1673ffffffffffffffffffffffffffffffffffffffff163373ffffffffffffffffffffffffffffffffffffffff16145b610669576040517f08c379a0000000000000000000000000000000000000000000000000000000008152600401610660906116c1565b60405180910390fd5b60048160020160106101000a81548160ff021916908360048111156106915761069061139c565b5b02179055503373ffffffffffffffffffffffffffffffffffffffff16827f3d7b9c0f639ad49974e1bbc4929d9b752cd120ac65ef5250a96255d4b3b88b01426040516106dd91906116df565b60405180910390a35050565b5f5f9054906101000a900473ffffffffffffffffffffffffffffffffffffffff1673ffffffffffffffffffffffffffffffffffffffff163373ffffffffffffffffffffffffffffffffffffffff1614610777576040517f08c379a000000000000000000000000000000000000000000000000000000000815260040161076e90611563565b60405180910390fd5b60025f8273ffffffffffffffffffffffffffffffffffffffff1673ffffffffffffffffffffffffffffffffffffffff1681526020019081526020015f205f9054906101000a900460ff16610800576040517f08c379a00000000000000000000000000000000000000000000000000000000081526004016107f790611742565b60405180910390fd5b5f60025f8373ffffffffffffffffffffffffffffffffffffffff1673ffffffffffffffffffffffffffffffffffffffff1681526020019081526020015f205f6101000a81548160ff0219169083151502179055503373ffffffffffffffffffffffffffffffffffffffff168173ffffffffffffffffffffffffffffffffffffffff167f873df40c70410c888c3e13234255f3399d7d292fc158569d8c5bcf98c61a5a1d60405160405180910390a350565b5f60015f8381526020019081526020015f2060020160109054906101000a900460ff1660048111156108e6576108e561139c565b5b9050919050565b5f5f1b8303610931576040517f08c379a0000000000000000000000000000000000000000000000000000000008152600401610928906117aa565b60405180910390fd5b5f60015f8581526020019081526020015f2090505f60048111156109585761095761139c565b5b8160020160109054906101000a900460ff16600481111561097c5761097b61139c565b5b146109bc576040517f08c379a00000000000000000000000000000000000000000000000000000000081526004016109b390611812565b60405180910390fd5b5f4290505f83826109cd919061185d565b90506040518060a001604052803373ffffffffffffffffffffffffffffffffffffffff1681526020018681526020018367ffffffffffffffff1681526020018267ffffffffffffffff16815260200160016004811115610a3057610a2f61139c565b5b81525060015f8881526020019081526020015f205f820151815f015f6101000a81548173ffffffffffffffffffffffffffffffffffffffff021916908373ffffffffffffffffffffffffffffffffffffffff160217905550602082015181600101556040820151816002015f6101000a81548167ffffffffffffffff021916908367ffffffffffffffff16021790555060608201518160020160086101000a81548167ffffffffffffffff021916908367ffffffffffffffff16021790555060808201518160020160106101000a81548160ff02191690836004811115610b1a57610b1961139c565b5b0217905550905050843373ffffffffffffffffffffffffffffffffffffffff16877fb5c6076f0f8582e29984e5b50d6aec8d7ed7c5ce4c25e586f3d81d94a31841648585604051610b6c929190611898565b60405180910390a4505050505050565b5f5f9054906101000a900473ffffffffffffffffffffffffffffffffffffffff1681565b6001602052805f5260405f205f91509050805f015f9054906101000a900473ffffffffffffffffffffffffffffffffffffffff1690806001015490806002015f9054906101000a900467ffffffffffffffff16908060020160089054906101000a900467ffffffffffffffff16908060020160109054906101000a900460ff16905085565b60025f3373ffffffffffffffffffffffffffffffffffffffff1673ffffffffffffffffffffffffffffffffffffffff1681526020019081526020015f205f9054906101000a900460ff16610cae576040517f08c379a0000000000000000000000000000000000000000000000000000000008152600401610ca590611909565b60405180910390fd5b5f60015f8481526020019081526020015f20905060016004811115610cd657610cd561139c565b5b8160020160109054906101000a900460ff166004811115610cfa57610cf961139c565b5b14610d3a576040517f08c379a0000000000000000000000000000000000000000000000000000000008152600401610d3190611633565b60405180910390fd5b8060020160089054906101000a900467ffffffffffffffff1667ffffffffffffffff164267ffffffffffffffff161115610da9576040517f08c379a0000000000000000000000000000000000000000000000000000000008152600401610da090611971565b60405180910390fd5b81610db5576003610db8565b60025b8160020160106101000a81548160ff02191690836004811115610dde57610ddd61139c565b5b02179055503373ffffffffffffffffffffffffffffffffffffffff16837f7d23350bf41aeae32a02078da061904341f80eeca2056e11cf8c6611f2fa83ea8442604051610e2c92919061198f565b60405180910390a3505050565b5f5f9054906101000a900473ffffffffffffffffffffffffffffffffffffffff1673ffffffffffffffffffffffffffffffffffffffff163373ffffffffffffffffffffffffffffffffffffffff1614610ec7576040517f08c379a0000000000000000000000000000000000000000000000000000000008152600401610ebe90611563565b60405180910390fd5b5f73ffffffffffffffffffffffffffffffffffffffff168173ffffffffffffffffffffffffffffffffffffffff1603610f35576040517f08c379a0000000000000000000000000000000000000000000000000000000008152600401610f2c90611a00565b60405180910390fd5b8073ffffffffffffffffffffffffffffffffffffffff165f5f9054906101000a900473ffffffffffffffffffffffffffffffffffffffff1673ffffffffffffffffffffffffffffffffffffffff167f8934ce4adea8d9ce0d714d2c22b86790e41b7731c84b926fbbdc1d40ff6533c960405160405180910390a3805f5f6101000a81548173ffffffffffffffffffffffffffffffffffffffff021916908373ffffffffffffffffffffffffffffffffffffffff16021790555050565b5f5f5f5f5f5f60015f8881526020019081526020015f209050805f015f9054906101000a900473ffffffffffffffffffffffffffffffffffffffff168160010154826002015f9054906101000a900467ffffffffffffffff168360020160089054906101000a900467ffffffffffffffff168460020160109054906101000a900460ff1660048111156110875761108661139c565b5b955095509550955095505091939590929450565b5f82825260208201905092915050565b7f56657269666965723a206e6f2066756e647300000000000000000000000000005f82015250565b5f6110df60128361109b565b91506110ea826110ab565b602082019050919050565b5f6020820190508181035f83015261110c816110d3565b9050919050565b7f56657269666965723a2066616c6c6261636b00000000000000000000000000005f82015250565b5f61114760128361109b565b915061115282611113565b602082019050919050565b5f6020820190508181035f8301526111748161113b565b9050919050565b5f5ffd5b5f73ffffffffffffffffffffffffffffffffffffffff82169050919050565b5f6111a88261117f565b9050919050565b6111b88161119e565b81146111c2575f5ffd5b50565b5f813590506111d3816111af565b92915050565b5f602082840312156111ee576111ed61117b565b5b5f6111fb848285016111c5565b91505092915050565b5f8115159050919050565b61121881611204565b82525050565b5f6020820190506112315f83018461120f565b92915050565b5f819050919050565b61124981611237565b8114611253575f5ffd5b50565b5f8135905061126481611240565b92915050565b5f6020828403121561127f5761127e61117b565b5b5f61128c84828501611256565b91505092915050565b5f60ff82169050919050565b6112aa81611295565b82525050565b5f6020820190506112c35f8301846112a1565b92915050565b5f67ffffffffffffffff82169050919050565b6112e5816112c9565b81146112ef575f5ffd5b50565b5f81359050611300816112dc565b92915050565b5f5f5f6060848603121561131d5761131c61117b565b5b5f61132a86828701611256565b935050602061133b86828701611256565b925050604061134c868287016112f2565b9150509250925092565b61135f8161119e565b82525050565b5f6020820190506113785f830184611356565b92915050565b61138781611237565b82525050565b611396816112c9565b82525050565b7f4e487b71000000000000000000000000000000000000000000000000000000005f52602160045260245ffd5b600581106113da576113d961139c565b5b50565b5f8190506113ea826113c9565b919050565b5f6113f9826113dd565b9050919050565b611409816113ef565b82525050565b5f60a0820190506114225f830188611356565b61142f602083018761137e565b61143c604083018661138d565b611449606083018561138d565b6114566080830184611400565b9695505050505050565b61146981611204565b8114611473575f5ffd5b50565b5f8135905061148481611460565b92915050565b5f5f604083850312156114a05761149f61117b565b5b5f6114ad85828601611256565b92505060206114be85828601611476565b9150509250929050565b5f60a0820190506114db5f830188611356565b6114e8602083018761137e565b6114f5604083018661138d565b611502606083018561138d565b61150f60808301846112a1565b9695505050505050565b7f56657269666965723a206f6e6c79206f776e65720000000000000000000000005f82015250565b5f61154d60148361109b565b915061155882611519565b602082019050919050565b5f6020820190508181035f83015261157a81611541565b9050919050565b7f56657269666965723a207a65726f206f7261636c6500000000000000000000005f82015250565b5f6115b560158361109b565b91506115c082611581565b602082019050919050565b5f6020820190508181035f8301526115e2816115a9565b9050919050565b7f56657269666965723a206e6f742070656e64696e6700000000000000000000005f82015250565b5f61161d60158361109b565b9150611628826115e9565b602082019050919050565b5f6020820190508181035f83015261164a81611611565b9050919050565b7f56657269666965723a206f6e6c7920726571756573746572206f72206f776e655f8201527f7200000000000000000000000000000000000000000000000000000000000000602082015250565b5f6116ab60218361109b565b91506116b682611651565b604082019050919050565b5f6020820190508181035f8301526116d88161169f565b9050919050565b5f6020820190506116f25f83018461138d565b92915050565b7f56657269666965723a206e6f7420616c6c6f77656400000000000000000000005f82015250565b5f61172c60158361109b565b9150611737826116f8565b602082019050919050565b5f6020820190508181035f83015261175981611720565b9050919050565b7f56657269666965723a20626164207265717565737449640000000000000000005f82015250565b5f61179460178361109b565b915061179f82611760565b602082019050919050565b5f6020820190508181035f8301526117c181611788565b9050919050565b7f56657269666965723a20696420757365640000000000000000000000000000005f82015250565b5f6117fc60118361109b565b9150611807826117c8565b602082019050919050565b5f6020820190508181035f830152611829816117f0565b9050919050565b7f4e487b71000000000000000000000000000000000000000000000000000000005f52601160045260245ffd5b5f611867826112c9565b9150611872836112c9565b9250828201905067ffffffffffffffff81111561189257611891611830565b5b92915050565b5f6040820190506118ab5f83018561138d565b6118b8602083018461138d565b9392505050565b7f56657269666965723a206f6e6c79206f7261636c6500000000000000000000005f82015250565b5f6118f360158361109b565b91506118fe826118bf565b602082019050919050565b5f6020820190508181035f830152611920816118e7565b9050919050565b7f56657269666965723a20657870697265640000000000000000000000000000005f82015250565b5f61195b60118361109b565b915061196682611927565b602082019050919050565b5f6020820190508181035f8301526119888161194f565b9050919050565b5f6040820190506119a25f83018561120f565b6119af602083018461138d565b9392505050565b7f56657269666965723a207a65726f206f776e65720000000000000000000000005f82015250565b5f6119ea60148361109b565b91506119f5826119b6565b602082019050919050565b5f6020820190508181035f830152611a17816119de565b905091905056fea26469706673582212205d5727bd102bcad8a4856bb8e23d407e1c24f4cc9bada32d80e018ecf76e789e64736f6c634300081e0033","linkReferences":{}},"methodIdentifiers":{"allowOracle(address)":"11bb14cc","cancelRequest(bytes32)":"50125546","fulfillVerification(bytes32,bool)":"efd71634","getRequest(bytes32)":"fb1e61ca","getStatus(bytes32)":"5de28ae0","oracleAllowlist(address)":"139eb020","owner()":"8da5cb5b","requestVerification(bytes32,bytes32,uint64)":"79573e14","requests(bytes32)":"9d866985","revokeOracle(address)":"5983e6b0","transferOwnership(address)":"f2fde38b"},"id":19}