{"abi":[{"type":"constructor","inputs":[{"name":"_trapSeed","type":"uint256","internalType":"uint256"}],"stateMutability":"nonpayable"},{"type":"function","name":"MAX_CODE","inputs":[],"outputs":[{"name":"","type":"uint256","internalType":"uint256"}],"stateMutability":"view"},{"type":"function","name":"ROTATION_INTERVAL","inputs":[],"outputs":[{"name":"","type":"uint256","internalType":"uint256"}],"stateMutability":"view"},{"type":"function","name":"getCodeForBlock","inputs":[{"name":"_blockNumber","type":"uint256","internalType":"uint256"}],"outputs":[{"name":"","type":"uint256","internalType":"uint256"}],"stateMutability":"view"},{"type":"function","name":"getCurrentCode","inputs":[],"outputs":[{"name":"","type":"uint256","internalType":"uint256"}],"stateMutability":"view"},{"type":"function","name":"getCurrentCode","inputs":[{"name":"_trapSeed","type":"uint256","internalType":"uint256"}],"outputs":[{"name":"","type":"uint256","internalType":"uint256"}],"stateMutability":"view"},{"type":"function","name":"getCurrentCodeWithMetadata","inputs":[],"outputs":[{"name":"code","type":"uint256","internalType":"uint256"},{"name":"blockNumber","type":"uint256","internalType":"uint256"},{"name":"nextRotationBlock","type":"uint256","internalType":"uint256"}],"stateMutability":"view"},{"type":"function","name":"getTrapId","inputs":[],"outputs":[{"name":"","type":"address","internalType":"address"}],"stateMutability":"view"},{"type":"function","name":"trapSeed","inputs":[],"outputs":[{"name":"","type":"uint256","internalType":"uint256"}],"stateMutability":"view"},{"type":"function","name":"verifyCode","inputs":[{"name":"_code","type":"uint256","internalType":"uint256"}],"outputs":[{"name":"","type":"bool","internalType":"bool"}],"stateMutability":"view"},{"type":"event","name":"CodeGenerated","inputs":[{"name":"trapId","type":"uint256","indexed":true,"internalType":"uint256"},{"name":"code","type":"uint256","indexed":false,"internalType":"uint256"},{"name":"blockNumber","type":"uint256","indexed":false,"internalType":"uint256"}],"anonymous":false}],"bytecode":{"object":"0x60a060405234801561000f575f5ffd5b5060405161072238038061072283398181016040528101906100319190610076565b8060808181525050506100a1565b5f5ffd5b5f819050919050565b61005581610043565b811461005f575f5ffd5b50565b5f815190506100708161004c565b92915050565b5f6020828403121561008b5761008a61003f565b5b5f61009884828501610062565b91505092915050565b60805161065b6100c75f395f81816101f001528181610258015261031b015261065b5ff3fe608060405234801561000f575f5ffd5b5060043610610091575f3560e01c8063af4f806811610064578063af4f806814610133578063bb8571ce14610151578063bc1b84981461016f578063d10a1d141461019f578063fee10cf4146101bd57610091565b806306b4c38214610095578063409a3e9e146100c55780634c68289a146100e35780637fd82fdb14610113575b5f5ffd5b6100af60048036038101906100aa9190610399565b6101db565b6040516100bc91906103d3565b60405180910390f35b6100cd610252565b6040516100da91906103d3565b60405180910390f35b6100fd60048036038101906100f89190610399565b610281565b60405161010a91906103d3565b60405180910390f35b61011b6102dd565b60405161012a939291906103ec565b60405180910390f35b61013b610319565b60405161014891906103d3565b60405180910390f35b61015961033d565b6040516101669190610460565b60405180910390f35b61018960048036038101906101849190610399565b610344565b6040516101969190610493565b60405180910390f35b6101a7610356565b6040516101b491906103d3565b60405180910390f35b6101c561035b565b6040516101d291906103d3565b60405180910390f35b5f5f6005836101ea9190610506565b90505f817f0000000000000000000000000000000000000000000000000000000000000000604051602001610220929190610556565b604051602081830303815290604052805190602001209050620f4240815f1c6102499190610581565b92505050919050565b5f61027c7f0000000000000000000000000000000000000000000000000000000000000000610281565b905090565b5f5f6005436102909190610506565b90505f81846040516020016102a6929190610556565b6040516020818303038152906040528051906020012090505f620f4240825f1c6102d09190610581565b9050809350505050919050565b5f5f5f6102e8610252565b9250439150600560016005846102fe9190610506565b61030891906105b1565b61031291906105e4565b9050909192565b7f000000000000000000000000000000000000000000000000000000000000000081565b5f30905090565b5f61034d610252565b82149050919050565b600581565b620f424081565b5f5ffd5b5f819050919050565b61037881610366565b8114610382575f5ffd5b50565b5f813590506103938161036f565b92915050565b5f602082840312156103ae576103ad610362565b5b5f6103bb84828501610385565b91505092915050565b6103cd81610366565b82525050565b5f6020820190506103e65f8301846103c4565b92915050565b5f6060820190506103ff5f8301866103c4565b61040c60208301856103c4565b61041960408301846103c4565b949350505050565b5f73ffffffffffffffffffffffffffffffffffffffff82169050919050565b5f61044a82610421565b9050919050565b61045a81610440565b82525050565b5f6020820190506104735f830184610451565b92915050565b5f8115159050919050565b61048d81610479565b82525050565b5f6020820190506104a65f830184610484565b92915050565b7f4e487b71000000000000000000000000000000000000000000000000000000005f52601260045260245ffd5b7f4e487b71000000000000000000000000000000000000000000000000000000005f52601160045260245ffd5b5f61051082610366565b915061051b83610366565b92508261052b5761052a6104ac565b5b828204905092915050565b5f819050919050565b61055061054b82610366565b610536565b82525050565b5f610561828561053f565b602082019150610571828461053f565b6020820191508190509392505050565b5f61058b82610366565b915061059683610366565b9250826105a6576105a56104ac565b5b828206905092915050565b5f6105bb82610366565b91506105c683610366565b92508282019050808211156105de576105dd6104d9565b5b92915050565b5f6105ee82610366565b91506105f983610366565b925082820261060781610366565b9150828204841483151761061e5761061d6104d9565b5b509291505056fea2646970667358221220f59cc8c807b5721ac1f153d0d3d930a74e35db900876e21f810e59b2c19df90664736f6c634300081e0033","linkReferences":{}},"methodIdentifiers":{"MAX_CODE()":"fee10cf4","ROTATION_INTERVAL()":"d10a1d14","getCodeForBlock(uint256)":"06b4c382","getCurrentCode()":"409a3e9e","getCurrentCode(uint256)":"4c68289a","getCurrentCodeWithMetadata()":"7fd82fdb","getTrapId()":"bb8571ce","trapSeed()":"af4f8068","verifyCode(uint256)":"bc1b8498"},"id":20}